:020000040000FA
:10000000092018200F20252037202E200F204020E7
:1000100008288316850186018312930108005D205C
:100020000130860005108510051500000511080037
:10003000033092005D2005108510303086000515D4
:1000400000000511920B1A2808005D203030860050
:100050000510851005150000051108005D2006300B
:1000600086000510851005150000051108005D20AB
:100070000E308600051085100515000005110800DA
:100080005D200514851013084F20003803194E28F1
:100090008600930A05150000051140280800820714
:1000A0004D347534733461342034433475346634DC
:1000B00061346C34633469340034FF309100FF30B4
:0C00C0009000900B6128910B5F28080055
:02400E00F13F80
:00000001FF
